:10FC000001C0D6C0112484B714BE982F9D7009F08E
:10FC100007D185E08093810082E08093C00088E175
:10FC20008093C10086E08093C20089E18093C40084
:10FC30008EE0E1D0259A84E028E13EEF91E0309318
:10FC400085002093840096BBB09BFECF1D9AA8959B
:10FC50008150A9F7C0E0D0E0C2D08134C9F4BFD050
:10FC6000182FCFD0123811F482E010C0113869F487
:10FC700086E00CC0843709F470C0853709F090C065
:10FC8000C0D08EE1A5D086E9A3D083E0A1D08DC0FD
:10FC9000823411F484E103C0853419F485E0B9D0CD
:10FCA00084C0853541F49BD0C82F99D0D0E0D82BA3
:10FCB000CC0FDD1F79C0863521F484E0AAD080E026
:10FCC000E5CF8436B9F68BD0082F10E0102F00272F
:10FCD00086D0082B84D0B82E7801C12CDD24D39493
:10FCE0007ED0F60181936F01F1E0EF1AF108C1F7C0
:10FCF00088D085E4B81212C06801D3947E0100E078
:10FD000011E00C151D0509F450C0F80161918F0137
:10FD1000C70194D0FFEFEF1AFF0AF3CF40E050E0A5
:10FD200063E0CE0145D0E12CF12CF701F395408141
:10FD30003196808150E0582B61E0C7018C0F9D1FE8
:10FD400037D082E0E80EF11C0E151F0571F740E078
:10FD500050E065E0CE012CD028C041D0082F10E043
:10FD6000102F00273CD0082B3AD0F82E4AD0E5E4DB
:10FD7000FE120DC07E01C70159D02AD001501109D1
:10FD8000FFEFEF1AFF0A01151105A9F70EC07E015A
:10FD9000F70185917F011CD001501109C9F705C0F9
:10FDA000813511F488E027D02CD080E111D054CFD8
:10FDB000FC010A0167BFE895112407B600FCFDCFDE
:10FDC000667029F0452B19F481E187BFE895089505
:10FDD0009091C00095FFFCCF8093C600089580915C
:10FDE000C00087FFFCCF8091C00084FD01C0A895B2
:10FDF0008091C6000895E0E6F0E098E1908380836A
:10FE00000895EDDF803219F088E0F5DFFFCF84E15F
:10FE1000DFCFCF93C82FE3DFC150E9F7CF91F1CF08
:10FE2000282E80E0E8DFE0E0FF270994F999FECF73
:10FE300092BD81BDF89A992780B50895262FF9992A
:10FE4000FECF92BD81BD20BD0FB6F894FA9AF99A03
:06FE50000FBE01960895AB
:02FFFE000206F9
:040000030000FC00FD
:00000001FF
