:107E000001C0A6C0112484B714BE982F9D7009F03C
:107E1000D7D085E08093810082E08093C00088E124
:107E20008093C10086E08093C20085E18093C40006
:107E30008EE0B1D0259A84E02CE33BEF91E03093C3
:107E400085002093840096BBB09BFECF1D9AA89519
:107E50008150A9F7C0E0D0E092D08134B1F48FD046
:107E6000182F9FD0123811F482E00DC0113851F450
:107E700086E009C0853709F063C093D08EE178D0E1
:107E800085E976D083E074D060C0823411F484E157
:107E900003C0853419F485E08CD057C0853541F492
:107EA0006ED0C82F6CD0D0E0D82BCC0FDD1F4CC0CB
:107EB000863521F484E07DD080E0E5CF843681F5FD
:107EC0005ED05DD0D82E5BD0F82E00E011E057D008
:107ED000F80181938F01DE12FACF63D0F5E4FF122F
:107EE00001C0FFCF40E050E063E0CE0131D07E0121
:107EF00000E011E0F80140810E5F1F4F3196808154
:107F000050E0582B61E0C70123D0F2E0EF0EF11CE6
:107F1000D012F0CF40E050E065E0CE0119D015C09E
:107F2000843709F0A7CF2BD02AD0182F28D039D0EA
:107F30007E01F70185917F011BD01150D1F705C05B
:107F4000813511F488E027D02CD080E111D084CF86
:107F5000FC010A0167BFE895112407B600FCFDCFBC
:107F6000667029F0452B19F481E187BFE8950895E3
:107F70009091C00095FFFCCF8093C600089580913A
:107F8000C00087FFFCCF8091C00084FD01C0A89590
:107F90008091C6000895E0E6F0E098E19083808348
:107FA0000895EDDF803219F088E0F5DFFFCF84E13E
:107FB000DFCFCF93C82FE3DFC150E9F7CF91F1CFE7
:0C7FC000282E80E0E8DFE0E0FF270994B5
:027FCC000206AB
:0400000300007E007B
:00000001FF
